:020000040000FA
:060000000A128A110E280D
:10000800FE00030EF2000408F3000A08F4000A12C6
:100018008A116A2B0A128A1111280A128A11E123FD
:100028000A128A11F7000A128A11E2230A128A11A7
:10003800F800B301B401B501B601B701B801B901BF
:10004800BA01BB01BC01F501F60183010A128A114C
:100058002D280A128A1123230A128A110D308312BD
:100068000313B100FB30B000B00B3828B10B3828AF
:100078004E3083120313B100EA30B000B00B4228AF
:10008800B10B42280000EB3083120313B000300894
:10009800A50001300A128A1176220A128A11073045
:1000A80083120313B1007C30B000B00B5928B10B98
:1000B8005928000083120313A501A50A0F300A125C
:1000C8008A1176220A128A11073083120313B100AB
:1000D8007C30B000B00B6E28B10B6E280000831284
:1000E8000313A501A50A00300A128A1176220A1202
:1000F8008A11073083120313B1007C30B000B00BB3
:100108008328B10B83280000033083120313B00047
:100118003008A50000300A128A1176220A128A11C4
:10012800073083120313B1007C30B000B00B9A285B
:10013800B10B9A2800000A128A11C5230A128A11E3
:1001480083120313A00129300A128A11BF220A124E
:100158008A11043083120313B100E330B000B00BEE
:10016800B328B10BB328B82880300A128A11842327
:100178000A128A11043083120313B100E330B0006D
:10018800B00BC428B10BC428C9280A128A11B72396
:100198000A128A1183120313A001A00A29300A1235
:1001A8008A11BF220A128A11043083120313B10084
:1001B800E330B000B00BDE28B10BDE28E3280A12CA
:1001C8008A11F4220A128A1183120313B00030082C
:1001D800BB000A128A114D230A128A1107308312B2
:1001E8000313B1007C30B000B00BF828B10BF8282D
:1001F8000000EF3083120313B0003008BB053B0842
:10020800B0003008A50000300A128A1176220A12BE
:100218008A114E3083120313B100EA30B000B00BDC
:100228001329B10B1329000016300A128A11D7219D
:100238000A128A11831203132608BA002508B90086
:100248000A128A11C5230A128A1183120313A00104
:1002580029300A128A11BF220A128A110430831225
:100268000313B100E330B000B00B3829B10B3829C3
:100278003D2980300A128A1184230A128A11043017
:1002880083120313B100E330B000B00B4929B10B5E
:1002980049294E290A128A11B7230A128A11831290
:1002A8000313A001A00A29300A128A11BF220A12D8
:1002B8008A11043083120313B100E330B000B00B8D
:1002C8006329B10B632968290A128A11F4220A12D8
:1002D8008A1183120313B0003008BB000A128A1176
:1002E8004D230A128A11073083120313B1007C30A0
:1002F800B000B00B7D29B10B7D29000083120313D8
:100308003B163B08B0003008A50000300A128A11DD
:1003180076220A128A114E3083120313B100EA3092
:10032800B000B00B9529B10B95290000031083127A
:100338000313061C03140318A229A6298312031306
:100348000614A92983120313061008300310BA0CE7
:10035800B90CFF3E031DAA293908B0003008BC00BB
:100368003C080A128A11A9230A128A11043083123E
:100378000313B100E330B000B00BC029B10BC029A2
:10038800C529033083120313B2008A30B1005530F7
:10039800B000B00BCD29B10BCD29B20BCD29472820
:1003A8000A128A110E2883120313A900AA01AB01AD
:1003B800AC01AF010A128A11C5230A128A118312ED
:1003C8000313A00129300A128A11BF220A128A11C6
:1003D800043083120313A800E330A700A70BF22907
:1003E800A80BF229F72983120313290880380A1267
:1003F8008A1184230A128A11043083120313A80075
:10040800E330A700A70B062AA80B062A0B2A0A1214
:100418008A11B7230A128A1183120313A001A00AB2
:1004280029300A128A11BF220A128A110430831253
:100438000313A800E330A700A70B202AA80B202A43
:10044800252A0A128A11F4220A128A118312031326
:10045800A7002708AC00043083120313A800E33078
:10046800A700A70B352AA80B352A3A2A0A128A119F
:10047800F4220A128A1183120313A7002708AF0077
:10048800043083120313A800E330A700A70B4A2AFD
:10049800A80B4A2A4F2A0A128A114D230A128A11D6
:1004A800831203132F0888002F08A700A801270824
:1004B800AD002808AE002C08A700A8012708AA004C
:1004C8002808AB0008300310AD0DAE0DFF3E031D2C
:1004D800672A2A08AD042B08AE042E08A6002D08AA
:1004E800A500080083120313A8000A128A11C52365
:1004F8000A128A1183120313A00129300A128A11E1
:10050800BF220A128A11043083120313A700E330B2
:10051800A600A60B8D2AA70B8D2A922A83120313F5
:10052800280880380A128A1184230A128A11043092
:1005380083120313A700E330A600A60BA12AA70B7A
:10054800A12AA62A8312031325080A128A118423D2
:100558000A128A11043083120313A700E330A6009D
:10056800A60BB42AA70BB42AB92A0A128A114D235A
:100578000A128A11080083120313A3002308A1009A
:100588002107A2002208A400831603131419CD2AF8
:10059800CE2AC82A11081F39031DD32AD42AC82AEB
:1005A800831203132008031DDA2ADB2ADF2A240812
:1005B800FE399300E72A2003031DE32AE42AE72AE9
:1005C800240801389300831603131419EC2AED2A22
:1005D800E72A11081F39031DF22AF32AE72A08001F
:1005E800831603131419F92AFA2AF42A11081F3951
:1005F800031DFF2A002BF42A91151419042B052B2F
:10060800012B11081F39031D0A2B0B2B012B8312F9
:1006180003131308A0002008A1008316031314195C
:10062800162B172B112B11081F39031D1C2B1D2BE3
:10063800112B911211168312031321080800831637
:1006480003138801831603178901FA3083160313ED
:10065800860083120313860188011830831603135A
:100668008700803094009101013093002830831274
:10067800031394000A128A1198230A128A1183120A
:1006880003138C012030831603138C00C0308B00B9
:1006980008005C2B1108831203138800141B552BC8
:1006A800592B8312031306145C2B831203130610B1
:1006B800831603131419612B622B4E2B11081F3953
:1006C800031D672B682B4E2B111508008B13831203
:1006D80003138C1E702B712B7A2B76300A128A1119
:1006E800D3230A128A11831203138C128B177408EE
:1006F8008A0073088400720E8300FE0E7E0E0900C5
:1007080083120313A0008316031314198C2B8D2B4B
:10071800872B11081F39031D922B932B872B8312CC
:100728000313200893000800193083160313990057
:100738009A01831603178701243083160313980040
:100748009030831203139800080083120313A0004B
:1007580083160313981CB12BB22BB62B83120313E9
:10076800200899000800831603131419BC2BBD2B0D
:10077800B72B11081F39031DC22BC32BB72B91149C
:100788000800831603131419CA2BCB2BC52B110889
:100798001F39031DD02BD12BC52B11140800F100D4
:1007A800831203138C1ED92BDA2BE02B1A08F000C6
:0E07B8007108840070088000080029340F3496
:04400E00D420FF3F7C
:00000001FF
