:020000040000FA
:060000000A128A110E280D
:10000800FE00030EF2000408F3000A08F4000A12C6
:100018008A113F290A128A111128F701F801830170
:100028000A128A1117280A128A1114210A128A112F
:100038000D3083120313A200FB30A100A10B22286C
:10004800A20B22280A128A117C210A128A11831211
:100058000313861C302831285D28F501F50A29305C
:100068000A128A11E5200A128A1183160313111B3A
:100078003E283F285428783083120313A100210812
:10008800F50000300A128A11A8200A128A110A12F1
:100098008A118A210A128A118312031306108128F1
:1000A8000A128A118A210A128A118312031306146A
:1000B8008128F50129300A128A11E5200A128A11CD
:1000C80083160313111B69286A2879280F300A122E
:1000D8008A1159210A128A110A128A118A210A12CE
:1000E8008A1183120313061081280A128A118A21A1
:1000F8000A128A1183120313061478080A128A1145
:10010800A6210A128A11033083120313A200973022
:10011800A100A10B8D28A20B8D2877088312031349
:100128008800023083120313A3000430A200B93000
:10013800A100A10B9D28A20B9D28A30B9D28A428F4
:1001480026280A128A110E2883120313A000831688
:1001580003131419B028B128AB2811081F39031D3F
:10016800B628B728AB2891151419BB28BC28B8287D
:1001780011081F39031DC128C228B8288312031388
:100188001308F600750884007608800083160313A8
:100198001419CF28D028CA2811081F39031DD528BB
:1001A800D628CA28831203132008031DDC28E02858
:1001B800831603139116E32883160313911211165D
:1001C8000800F600831603131419EB28EC28E62818
:1001D80011081F39031DF128F228E6287508031DA8
:1001E800F628F728FD287608FE39831203139300B2
:1001F80007297503031D01290229072976080138F3
:100208008312031393008316031314190C290D2961
:10021800072911081F39031D122913290729080066
:100228008316031388018316031789010230831686
:10023800031386008312031386018801870118308F
:1002480083160313870080309400910109309300CE
:1002580028308312031394000A128A116B210A12A0
:100268008A11831203138C012030831603138C0028
:10027800C0308B0008008B13831203138C1E452992
:1002880046294F2977300A128A1198210A128A11B1
:10029800831203138C128B1774088A007308840066
:1002A800720E8300FE0E7E0E0900F50083160313FE
:1002B80014195F2960295A2911081F39031D652956
:1002C80066295A2975088312031393000800193008
:1002D8008316031399009A018316031787012430A4
:1002E80083160313980090308312031398000800B4
:1002F800831603131419812982297C2911081F39AF
:10030800031D872988297C291114080083160313E3
:1003180014198F2990298A2911081F39031D952935
:1003280096298A2911150800F100831203138C1EDF
:100338009E299F29A5291A08F000710884007008D1
:1003480080000800F50083160313981CAC29AD291A
:0C035800B12975088312031399000800F6
:04400E00D420FF3F7C
:00000001FF
