:020000040000FA
:060000000A128A110E280D
:10000800FE00030EF3000408F4000A08F5000A12C3
:100018008A113C290A128A1111280A128A11C2214E
:100028000A128A11FA000A128A11C3210A128A11C5
:10003800FB00A001A101A201A301A401A501A60141
:10004800A701F601F701F801F90183010A128A11E3
:100058002D280A128A1112210A128A110D308312D0
:100068000313AE00FB30AD00AD0B3828AE0B3828BB
:100078000A128A11A6210A128A1183120313861CF6
:10008800462847287128A801A80A14300A128A119C
:10009800AE200A128A1183160313111B54285528FF
:1000A80068280A128A11E3200A128A11831203139C
:1000B800AD002D08FB000A128A115A210A128A1172
:1000C80083120313061095280A128A115A210A125C
:1000D8008A118312031306149528A80114300A12F2
:1000E8008A11AE200A128A1183160313111B7D2868
:1000F8007E288D280F300A128A1173210A128A115C
:100108000A128A115A210A128A118312031306103D
:1001180095280A128A115A210A128A118312031386
:1001280006147B080A128A1198210A128A110430CF
:1001380083120313AE00E330AD00AD0BA128AE0B64
:10014800A128A62879088312031388003C280A12DC
:100158008A110E2883120313AB002B08A900290764
:10016800AA002A08AC00831603131419BC28BD285A
:10017800B72811081F39031DC228C328B7288312BE
:1001880003132808031DC928CA28CE282C08FE39BD
:100198009300D6282803031DD228D328D6282C0854
:1001A80001389300831603131419DB28DC28D6289A
:1001B80011081F39031DE128E228D62808008316F4
:1001C80003131419E828E928E32811081F39031D27
:1001D800EE28EF28E32891151419F328F428F028BD
:1001E80011081F39031DF928FA28F0288312031370
:1001F8001308A8002808A900831603131419052951
:100208000629002911081F39031D0B290C2900296B
:100218009112111683120313290808008316031379
:100228008801831603178901F830831603138600A3
:10023800831203138601880118308316031387007D
:100248008030940091010130930028308312031309
:1002580094000A128A1187210A128A118312031341
:100268008C012030831603138C00C0308B000800EB
:100278008B13831203138C1E42294329502979308A
:100288000A128A11B4210A128A110130F200720886
:10029800F807831203138C128B1775088A007408E9
:1002A8008400730E8300FE0E7E0E09006529111A64
:1002B8005E296229831203138614652983120313A6
:1002C80086108316031314196A296B295B291108F0
:1002D8001F39031D702971295B2911150800831224
:1002E8000313A8008316031314197B297C29762984
:1002F80011081F39031D81298229762983120313C6
:1003080028089300080019308316031399009A01EE
:10031800831603178701243083160313980090303F
:10032800831203139800080083120313A80083168E
:100338000313981CA029A129A529831203132808AF
:1003480099000800831603131419AB29AC29A629B0
:1003580011081F39031DB129B229A6291114080053
:10036800F100831203138C1EBA29BB29C1291A086C
:10037800F0007108840070088000080029340F34E8
:04400E00D420FF3F7C
:00000001FF
