:020000040000FA
:060000000A128A110E280D
:10000800FE00030EF2000408F3000A08F4000A12C6
:100018008A113D290A128A111128F701F801830172
:100028000A128A1117280A128A1112210A128A1131
:100038000D3083120313A200FB30A100A10B22286C
:10004800A20B22280A128A1180210A128A1183120D
:100058000313861C302831285D28F501F50A29305C
:100068000A128A11E3200A128A1183160313111B3C
:100078003E283F285428783083120313A100210812
:10008800F50000300A128A11A6200A128A110A12F3
:100098008A118E210A128A118312031306108128ED
:1000A8000A128A118E210A128A1183120313061466
:1000B8008128F50129300A128A11E3200A128A11CF
:1000C80083160313111B69286A2879280F300A122E
:1000D8008A115D210A128A110A128A118E210A12C6
:1000E8008A1183120313061081280A128A118E219D
:1000F8000A128A11831203130614780888007808F4
:100108000A128A11AA210A128A11033083120313D0
:10011800A2009730A100A10B8F28A20B8F280230D4
:1001280083120313A3000430A200B930A100A10B6D
:100138009B28A20B9B28A30B9B28A22826280A12DF
:100148008A110E2883120313A000831603131419AF
:10015800AE28AF28A92811081F39031DB428B528CF
:10016800A92891151419B928BA28B62811081F39D1
:10017800031DBF28C028B628831203131308F600EE
:100188007508840076088000831603131419CD2897
:10019800CE28C82811081F39031DD328D428C828F9
:1001A800831203132008031DDA28DE28831603139D
:1001B8009116E12883160313911211160800F60010
:1001C800831603131419E928EA28E42811081F39AB
:1001D800031DEF28F028E4287508031DF428F528E6
:1001E800FB287608FE39831203139300052975034B
:1001F800031DFF28002905297608013883120313F7
:1002080093008316031314190A290B2905291108C9
:100218001F39031D10291129052908008316031306
:100228008801831603178901023083160313860099
:10023800831203138601880187011830831603137C
:100248008700803094009101093093002830831290
:10025800031394000A128A116F210A128A11831259
:1002680003138C012030831603138C00C0308B00DD
:1002780008008B13831203138C1E43294429532926
:10028800981C472948294929181277300A128A11D7
:100298009C210A128A118312031318168C128B17C9
:1002A80074088A0073088400720E8300FE0E7E0EA6
:1002B8000900F500831603131419632964295E29BC
:1002C80011081F39031D69296A295E2975088312D7
:1002D80003139300080019308316031399009A0139
:1002E8008316031787012430831603139800903070
:1002F8008312031398000800831603131419852921
:100308008629802911081F39031D8B298C298029EA
:1003180011140800831603131419932994298E299C
:1003280011081F39031D99299A298E2911150800CA
:10033800F100831203138C1EA229A329A9291A08E4
:10034800F00071088400700880000800F50083162A
:100358000313981CB029B129B52975088312031312
:0403680099000800F0
:04400E00D420FF3F7C
:00000001FF
