:020000040000FA
:060000000A128A110E280D
:10000800FE00030EF3000408F4000A08F5000A12C3
:100018008A1190290A128A111128F601F701F801AC
:1000280083010A128A11DD2983120313A600260808
:10003800A20004300310A20CFF3E031D1E28220854
:10004800A3002308A40026080F39A2002208A5004F
:10005800A4283F30A20020088400220880005529E7
:100068000630A200200884002208800055295B3051
:10007800A200200884002208800055294F30A200E1
:10008800200884002208800055296630A200200834
:1000980084002208800055296D30A20020088400C1
:1000A8002208800055297D30A200200884002208FB
:1000B800800055290730A20020088400220880000B
:1000C80055297F30A2002008840022088000552985
:1000D8006F30A2002008840022088000552977305C
:1000E800A200200884002208800055297C30A20044
:1000F800200884002208800055293930A2002008F1
:1001080084002208800055295E30A200200884005F
:100118002208800055297930A2002008840022088E
:10012800800055297130A200200884002208800030
:1001380055298030A2002008840022088000552913
:100148002408A200A3012308003A0319AC289D281B
:100158002208003A03192D28013A03193428033AD2
:1001680003193B28013A03194228073A0319492879
:10017800013A03195028033A03195728013A031979
:100188005E280F3A03196528013A03196C28033AC7
:1001980003197328013A03197A28073A03198128A1
:1001A800013A03198828033A03198F28013A0319D9
:1001B80096289D283F30A20021088400220880004C
:1001C8008F290630A20021088400220880008F2988
:1001D8005B30A20021088400220880008F294F305C
:1001E800A20021088400220880008F296630A2001E
:1001F80021088400220880008F296D30A200210880
:100208008400220880008F297D30A2002108840004
:10021800220880008F290730A200210884002208C4
:1002280080008F297F30A2002108840022088000E6
:100238008F296F30A20021088400220880008F29AE
:100248007730A20021088400220880008F297C30A2
:10025800A20021088400220880008F293930A200DA
:1002680021088400220880008F295E30A20021081E
:100278008400220880008F297930A2002108840098
:10028800220880008F297130A200210884002208EA
:1002980080008F298030A200210884002208800075
:1002A8008F292508A200A3012308003A03195D2914
:1002B8004E292208003A0319DE28013A0319E528D5
:1002C800033A0319EC28013A0319F328073A0319EA
:1002D800FA28013A03190129033A03190829013AAE
:1002E80003190F290F3A03191629013A03191D2971
:1002F800033A03192429013A03192B29073A031948
:100308003229013A03193929033A03194029013AD4
:10031800031947294E290800831203130C1F952936
:100328009629A229831603130C1F9B299C29A2290D
:1003380078300A128A115E220A128A118316031370
:100348008C1CA729A829BC29831203138C1CAD294E
:10035800AE29BC29061EB129B229B729061276088A
:1003680087008616BB2986127708870006168C1028
:100378008B1DBF29C029D4290B1CC329C429D42902
:100388008312061CC829C929CD290130F200720838
:100398008807861CD029D129D329013088020B105F
:1003A80075088A0074088400730E8300FE0E7E0EA2
:1003B80009000A128A111E220A128A110A128A11C7
:1003C8004C220A128A11773083120313A7002708D8
:1003D800A0007630A8002808A10078080A128A111F
:1003E80018200A128A1178088312031308020318C6
:1003F800FE29FF29012A8615022A86110618052AD0
:10040800062A0A2A861C092A0A2AE22903308312A4
:100418000313A9000830A8007630A700A70B122AFA
:10042800A80B122AA90B122A00000B14E2290A129F
:100438008A110E28831603178801890109140730C9
:10044800831603138600870188018312031386012C
:1004580087017F30880060309F00831603139F0157
:10046800831203131F14FF308316031392008312A1
:100478000313910106309200073083160313960088
:1004880042308C00831203130C13C8308B00080011
:100498000D3083120313A100FB30A000A00B522AD9
:1004A800A10B522A831203139F185B2A5C2A5D2A28
:1004B8009F140800F100831203131E08F00071084E
:0A04C8008400700880000C13080087
:04400E00D120FF3F7F
:00000001FF
