:020000040000FA
:060000000A128A110C280F
:10000800FE00030EF1000A08F2000A128A118E2976
:100018000A128A110F28F701F801F90183010A125F
:100028008A11FB2983120313A2002208F500043069
:100038000310F50CFF3E031D1C287508F600760812
:10004800A00022080F39F5007508A100A2283F304A
:10005800F500730884007508800053290630F50000
:10006800730884007508800053295B30F500730815
:1000780084007508800053294F30F5007308840008
:100088007508800053296630F500730884007508E8
:10009800800053296D30F5007308840075088000CE
:1000A80053297D30F50073088400750880005329B2
:1000B8000730F500730884007508800053297F30E5
:1000C800F500730884007508800053296F30F50027
:1000D800730884007508800053297730F500730889
:1000E80084007508800053297C30F500730884006B
:1000F8007508800053293930F500730884007508A5
:10010800800053295E30F50073088400750880006C
:1001180053297930F5007308840075088000532945
:100128007130F50073088400750880005329803009
:10013800F500730884007508800053292008F5002D
:10014800F6017608003A0319AA289B287508003A90
:1001580003192B28013A03193228033A03193928BD
:10016800013A03194028073A03194728013A0319A5
:100178004E28033A03195528013A03195C280F3A07
:1001880003196328013A03196A28033A03197128E5
:10019800013A03197828073A03197F28013A031905
:1001A8008628033A03198D28013A031994289B28B5
:1001B8003F30F50074088400750880008D290630EA
:1001C800F50074088400750880008D295B30F500FF
:1001D80074088400750880008D294F30F500740874
:1001E8008400750880008D296630F5007408840045
:1001F800750880008D296D30F50074088400750835
:1002080080008D297D30F500740884007508800011
:100218008D290730F50074088400750880008D2941
:100228007F30F50074088400750880008D296F30D0
:10023800F50074088400750880008D297730F50072
:1002480074088400750880008D297C30F5007408D6
:100258008400750880008D293930F5007408840001
:10026800750880008D295E30F500740884007508D3
:1002780080008D297930F5007408840075088000A5
:100288008D297130F50074088400750880008D2967
:100298008030F50074088400750880008D292108D5
:1002A800F500F6017608003A03195B294C29750810
:1002B800003A0319DC28013A0319E328033A031921
:1002C800EA28013A0319F128073A0319F828013AEC
:1002D8000319FF28033A03190629013A03190D29BE
:1002E8000F3A03191429013A03191B29033A031970
:1002F8002229013A03192929073A03193029013A11
:1003080003193729033A03193E29013A03194529E4
:100318004C290800831203130C1F93299429A1293F
:10032800831603130C1F99299A29A12983120313F1
:100338001E08F0007008F7000C13831603138C1CBA
:10034800A629A729BB29831203138C1CAC29AD2924
:10035800BB29061EB029B129B629061279088700DB
:100368008616BA2986127808870006168C108B1D07
:10037800BE29BF29C7290B1CC229C329C729831233
:10038800060806080B1072088A00710E8300FE0E1C
:100398007E0E0900831603178801890109140730A6
:1003A80083160313860087018801831203138601CD
:1003B8008701880160309F00831603139F01831211
:1003C80003131F14FF3083160313920083120313C1
:1003D80091010630920007308316031396004230CD
:1003E8008C00831203130C13C8308B0008000A1208
:1003F8008A11CE210A128A110A128A1119220A12A6
:100408008A11793083120313A3002308F30078308C
:10041800A4002408F40077080A128A1116200A1288
:100428008A11002A0A128A110C280D30F400FB30B8
:10043800F300F30B1D2AF40B1D2A222A831203133F
:0C0448009F18272A282A292A9F14080040
:04400E00D120FF3F7F
:00000001FF
