:020000040000FA
:060000000A128A110C280F
:10000800FE00030EF1000A08F2000A128A111328F2
:100018000A128A110F2883010A128A114A288B1D95
:10002800162817282C280B1C1A281B282C28831262
:100038000313061C2028212825280130F000700809
:100048008807861C282829282B28013088020B10AD
:1000580072088A00710E8300FE0E7E0E0900831658
:1000680003178801890109140730831603138600D2
:10007800870188018312031386018701880188306C
:100088008B00033083160313960008000A128A11A6
:0E00980033200A128A114F280A128A110C28EE
:04400E00D120FF3F7F
:00000001FF
