:020000040000FA
:060000000A128A110C280F
:10000800FE00030EF4000A08F5000A128A111C28E3
:100018000A128A110F280A128A1198200A128A11C4
:10002800F600F001F101F20183010A128A118F280A
:10003800831203138C1D212822286C281412141BE8
:10004800262827282B28941F2A282B2832281308EB
:10005800F3007308F0001413941314168316031393
:10006800941A372838284E2814193B283C284E283B
:10007800831203131308F3007308F00083160313A5
:10008800141C4728482842288312031313088800A1
:1000980014166A28941A512852286A28141D5528BB
:1000A80056286A28831203131308F3007308F00014
:1000B800831603131410AA30831203139300141623
:1000C80083160313141869286A28642883128C116C
:1000D80075088A00740E8300FE0E7E0E09008316D2
:1000E800031388018312031388011830831603133E
:1000F8008700803094003030930001309100363012
:100108008312031394008C110830831603138C0098
:10011800C0308B0008000A128A1173200A128A1153
:0A01280094280A128A110C28AA3448
:04400E00F43FFF3F3D
:00000001FF
