:020000040000FA
:060000000A128A11F82F1C
:100E5200831603178801890183160313850187010D
:100E620088010730860083120313850186018701FA
:100E7200880108000430F2000C30F1003330F00039
:100E8200F00B412FF10B412FF20B412F482FF801AC
:100E9200F90183120313870188010613861386154D
:100EA200061286120530F2000F30F100F130F00028
:100EB200F00B592FF10B592FF20B592F83120313F9
:100EC200861106160830F2001B30F1002730F000C0
:100ED200F00B692FF10B692FF20B692F83120313A9
:100EE20006128616013087000130880008000A12B7
:100EF2008A1129270A128A1183120313061C822FD0
:100F0200832F872F0130F6000030F7007603770435
:100F1200031D8C2F8D2F7D2F0A128A113B270A1257
:100F22008A11D32F83120313861C982F992FB42F63
:100F32000530F5000F30F400F130F300F30B9F2F72
:100F4200F40B9F2FF50B9F2F831203130808F30056
:100F5200730788000808031DAF2FB02FB42F01308C
:100F6200F8000030F900061DB72FB82FD32F053037
:100F7200F5000F30F400F130F300F30BBE2FF40B49
:100F8200BE2FF50BBE2F831203130708F30073075E
:100F920087000708031DCE2FCF2FD32F0130F80073
:100FA2000030F900780879040319D82FD92F932F2C
:100FB2008312031386110612861208080702031809
:100FC200E32FE42FE72F06178613F22F07080802F4
:100FD2000318EC2FED2FF02F06138617F22F0617AA
:100FE2008617F601F7017D2F0A128A110028F601F1
:0E0FF200F701F801F90183010A128A11782F24
:04400E00D120FF3F7F
:00000001FF
