:020000040000FA
:060000000A128A110C280F
:10000800FE00030EF1000A08F2000A128A11DC2A27
:100018000A128A110F28F801F901FA0183010A125C
:100028008A11042A0330F5009730F400F40B1A28DB
:10003800F50B1A281F2853300A128A1120230A1296
:100048008A110330F5009730F400F40B2928F50BDA
:1000580029282E2831300A128A1120230A128A11DF
:100068000330F5009730F400F40B3828F50B3828E6
:100078003D283A300A128A1120230A128A110330C5
:10008800F5009730F400F40B4728F50B47284C2867
:1000980020300A128A1120230A128A110330F5002F
:1000A8009730F400F40B5628F50B56285B282030BF
:1000B8000A128A1120230A128A110330F500973098
:1000C800F400F40B6528F50B65286A2820300A121D
:1000D8008A1120230A128A110330F5009730F400A0
:1000E800F40B7428F50B7428792853300A128A11F6
:1000F80020230A128A110330F5009730F400F40B1C
:100108008328F50B8328882832300A128A11202385
:100118000A128A110330F5009730F400F40B922884
:10012800F50B922897283A300A128A1120230A12CE
:100138008A110330F5009730F400F40BA128F50B71
:10014800A128A62820300A128A1120230A128A110F
:100158000330F5009730F400F40BB028F50BB02805
:10016800B52820300A128A1120230A128A11033076
:10017800F5009730F400F40BBF28F50BBF28C4280E
:1001880020300A128A1120230A128A110330F5003E
:100198009730F400F40BCE28F50BCE28D328533033
:1001A8000A128A1120230A128A110330F5009730A7
:1001B800F400F40BDD28F50BDD28E22833300A12B1
:1001C8008A1120230A128A110330F5009730F400AF
:1001D800F40BEC28F50BEC28F1283A300A128A11B6
:1001E80020230A128A110330F5009730F400F40B2B
:1001F800FB28F50BFB28002920300A128A1120233E
:100208000A128A110330F5009730F400F40B0A291A
:10021800F50B0A290F290A128A112C230A128A11AE
:100228000330F5009730F400F40B1829F50B182962
:100238001D29080001308A000408840A8207003456
:100248007734773477342E3465346C3465346334DA
:10025800743472346F3453346F346D3465342E34DF
:1002680063346F346D340034533431343A342034C9
:1002780020342034533432343A3420342034203477
:10028800533433343A34203400344C344334443413
:1002980020344C34693462347234613472347934C1
:1002A800203466346F347234003444346534763420
:1002B80065346C346F3470346534643420344234BB
:1002C8007934003465346C3465346334743472348E
:1002D8006F3453346F346D34653400344D345034D6
:1002E8004C344134423420345834433438340034A4
:1002F80000300A128A11C6210A128A113430831278
:100308000313A100F130A000A00B8829A10B8829B4
:1003180030300A128A11AC220A128A110D30831267
:100328000313A100FB30A000A00B9829A10B98296A
:1003380030300A128A11AC220A128A111D30831237
:100348000313A1009030A000A00BA829A10BA82995
:10035800000030300A128A11AC220A128A11383091
:100368000A128A11AC220A128A110C300A128A1156
:10037800AC220A128A1106300A128A11AC220A1219
:100388008A110800F300731CCA29CB29CF298312CC
:1003980003130814D229831203130810F31CD52958
:1003A800D629D8298814D9298810731DDC29DD2974
:1003B800DF290815E0290811F31DE329E429E629B6
:1003C8008815E7298811731EEA29EB29ED290816F3
:1003D800EE290812F31EF129F229F4298816F529C5
:1003E8008812731FF829F929FB290817FC29081313
:1003F800F31FFF29002A022A8817032A88130800F6
:100408000A128A115E220A128A110A128A117C21A2
:100418000A128A110A128A1116200A128A110A125D
:100428008A1102230A128A110A128A1111230A1246
:100438008A11033083120313A4009730A300A30B7F
:10044800232AA40B232A831203138613FF30930055
:100458000A128A112C230A128A110E2A0A128A11E8
:100468000C2883120313A200A001A101502A20081E
:10047800220784000A128A111E210A128A110A12FE
:100488008A11C6220A128A11013083120313A007A7
:100498000318A10A0030A1072008220784000A12C5
:1004A8008A111E210A128A11003A031D5C2A5D2A4C
:1004B8003B2A080083160317890183160313880152
:1004C80083120313880187010A128A11F1220A1282
:1004D8008A111F30831603138600603083120313BA
:1004E8008600103083160313870094019101303081
:1004F8008312031394000830831603138C00C03052
:100508008B00080083120313A1002103031D8D2A09
:100518008E2A9A2A77087F3EA0002008A200220887
:100528000A128A11AC220A128A11AB2A0230210659
:10053800031D9F2AA02AAB2A7708BF3EA0002008E7
:10054800A20022080A128A11AC220A128A11080093
:10055800F60083120313871076080A128A11C6213F
:100568000A128A118312031307140B30F500623044
:10057800F400F40BBD2AF50BBD2A00008312031307
:1005880007100800F50083120313871475080A1270
:100598008A11C6210A128A118312031307141A300A
:1005A800F400F40BD52A0000831203130710080087
:1005B8008B13831203138C1DE22AE32AE92A1308FA
:1005C800F0007008FA0086178C118B1772088A00E1
:1005D800710E8300FE0E7E0E090019308316031378
:1005E80099009A0183160317870124308316031391
:1005F800980090308312031398000800F701F70A57
:1006080001300A128A1186220A128A1115300A123A
:100618008A1135220A128A110800F701F70A0230F6
:100628000A128A1186220A128A117A080A128A1173
:10063800C6220A128A110800F30083160313981CB5
:10064800262B272B2B2B73088312031399000800E2
:1006580083160313981C312B322B362B0D30831243
:06066800031399000800D5
:04400E00D120FF3F7F
:00000001FF
