:020000040000FA
:060000000A128A110C280F
:10000800FE00030EF1000A08F2000A128A11472EB8
:100018000A128A110F280A128A117F270A128A11D6
:10002800BE000A128A1180270A128A11BF00B7017E
:10003800B801B901BA01BB01BC01BD01F801F90160
:10004800FA0183010A128A11222BF701F70A0230FA
:100058000A128A11C8260A128A11783083120313E9
:10006800A3002308F3003D080A128A11A1230A12EB
:100078008A1178080A128A1108270A128A11780840
:100088000A128A1168270A128A110330831203138D
:10009800A4009730A300A30B4F28A40B4F282E30A1
:1000A8000A128A1108270A128A112E300A128A1196
:1000B80068270A128A11033083120313A4009730A9
:1000C800A300A30B6528A40B6528783083120313BB
:1000D800A3002308F3003C080A128A11A1230A127C
:1000E8008A1178080A128A1108270A128A117808D0
:1000F8000A128A1168270A128A110330831203131D
:10010800A4009730A300A30B8728A40B8728783076
:1001180083120313A3002308F3003B080A128A1171
:10012800A1230A128A1178080A128A1108270A12CA
:100138008A1178080A128A1168270A128A1103306C
:1001480083120313A4009730A300A30BA928A40BC0
:10015800A92856300A128A1108270A128A1156301D
:100168000A128A1168270A128A11033083120313AC
:10017800A4009730A300A30BBF28A40BBF285930B5
:100188000A128A119F260A128A1120300A128A112D
:1001980068270A128A11033083120313A4009730C8
:1001A800A300A30BD528A40BD52820300A128A1146
:1001B80068270A128A11033083120313A4009730A8
:1001C800A300A30BE528A40BE5287A3083120313B8
:1001D800A3002308F3007930A4002408F400393080
:1001E800A5002508F5003E080A128A11A7250A125B
:1001F8008A11783083120313A3002308F300390807
:100208000A128A11A1230A128A1178080A128A117D
:1002180008270A128A1178080A128A1168270A120E
:100228008A11033083120313A4009730A300A30B91
:100238001B29A40B1B29783083120313A30023085E
:10024800F30079080A128A11A1230A128A11780880
:100258000A128A1108270A128A1178080A128A11C2
:1002680068270A128A11033083120313A4009730F7
:10027800A300A30B3D29A40B3D2978308312031357
:10028800A3002308F3007A080A128A11A1230A128C
:100298008A1178080A128A1108270A128A1178081E
:1002A8000A128A1168270A128A110330831203136B
:1002B800A4009730A300A30B5F29A40B5F29593032
:1002C8000A128A119F260A128A1120300A128A11EC
:1002D80068270A128A11033083120313A400973087
:1002E800A300A30B7529A40B752920300A128A11C3
:1002F80068270A128A11033083120313A400973067
:10030800A300A30B8529A40B85297A308312031334
:10031800A3002308F3007930A4002408F40039303E
:10032800A5002508F5003A080A128A11A7250A121D
:100338008A11783083120313A3002308F3003908C5
:100348000A128A11A1230A128A1178080A128A113C
:1003580008270A128A1178080A128A1168270A12CD
:100368008A11033083120313A4009730A300A30B50
:10037800BB29A40BBB29783083120313A3002308DD
:10038800F30079080A128A11A1230A128A1178083F
:100398000A128A1108270A128A1178080A128A1181
:1003A80068270A128A11033083120313A4009730B6
:1003B800A300A30BDD29A40BDD29783083120313D6
:1003C800A3002308F3007A080A128A11A1230A124B
:1003D8008A1178080A128A1108270A128A117808DD
:1003E8000A128A1168270A128A110330831203132A
:1003F800A4009730A300A30BFF29A40BFF294330C7
:100408000A128A1108270A128A1143300A128A111D
:1004180068270A128A11033083120313A400973045
:10042800A300A30B152AA40B152A08000330F50016
:100438009730F400F40B1E2AF50B1E2A232A53309A
:100448000A128A1168270A128A110330F5009730B8
:10045800F400F40B2D2AF50B2D2A322A31300A121A
:100468008A1168270A128A110330F5009730F400C0
:10047800F40B3C2AF50B3C2A412A3A300A128A111D
:1004880068270A128A110330F5009730F400F40B3C
:100498004B2AF50B4B2A502A20300A128A1168275A
:1004A8000A128A110330F5009730F400F40B5A2A27
:1004B800F50B5A2A5F2A20300A128A1168270A1275
:1004C8008A110330F5009730F400F40B692AF50B14
:1004D800692A6E2A20300A128A1168270A128A119C
:1004E8000330F5009730F400F40B782AF50B782ADE
:1004F8007D2A53300A128A1168270A128A1103309A
:10050800F5009730F400F40B872AF50B872A8C2A1C
:1005180032300A128A1168270A128A110330F5004C
:100528009730F400F40B962AF50B962A9B2A3A305A
:100538000A128A1168270A128A110330F5009730C7
:10054800F400F40BA52AF50BA52AAA2A20300A12D2
:100558008A1168270A128A110330F5009730F400CF
:10056800F40BB42AF50BB42AB92A20300A128A11DE
:1005780068270A128A110330F5009730F400F40B4B
:10058800C32AF50BC32AC82A20300A128A11682701
:100598000A128A110330F5009730F400F40BD22ABE
:1005A800F50BD22AD72A53300A128A1168270A1261
:1005B8008A110330F5009730F400F40BE12AF50BAB
:1005C800E12AE62A33300A128A1168270A128A11A8
:1005D8000330F5009730F400F40BF02AF50BF02AFD
:1005E800F52A3A300A128A1168270A128A1103304A
:1005F800F5009730F400F40BFF2AF50BFF2A042BC3
:1006080020300A128A1168270A128A110330F5006D
:100618009730F400F40B0E2BF50B0E2B132B0A124C
:100628008A1174270A128A110330F5009730F400F2
:10063800F40B1C2BF50B1C2B212B08000A128A111A
:1006480016260A128A110A128A11E3240A128A113A
:100658000A128A111A220A128A110A128A114C27BE
:100668000A128A11073083120313B4007C30B300D6
:10067800B30B3C2BB40B3C2B00000A128A115A27EF
:100688000A128A11073083120313B4007C30B300B6
:10069800B30B4C2BB40B4C2B00000A128A113E27CB
:1006A8000A128A11073083120313B4007C30B30096
:1006B800B30B5C2BB40B5C2B00003A308312031392
:1006C800B3003308AA00AB01FF30B4003408AC0013
:1006D8000D30B5003508AD009630B6003608AE00CE
:1006E80038080A128A11E2250A128A113D3083124B
:1006F8000313B3003308F3003C30B4003408F400AB
:100708003B30B5003508F5003F080A128A116B2501
:100718000A128A110A128A112F270A128A110A123A
:100728008A1129200A128A110A128A1174270A12B8
:100738008A11312B0A128A110C28F600F02B30305E
:10074800F4007308840074088000182C3130F40019
:100758007308840074088000182C3230F400730881
:10076800840074088000182C3330F4007308840067
:1007780074088000182C3430F4007308840074085E
:100788008000182C3530F400730884007408800049
:10079800182C3630F4007308840074088000182C74
:1007A8003730F4007308840074088000182C38303F
:1007B800F4007308840074088000182C3930F400A1
:1007C8007308840074088000182C3F30F400730804
:1007D800840074088000182C7608F400F501750868
:1007E800003A0319F82BE92B7408003A0319A32BD4
:1007F800013A0319AA2B033A0319B12B013A031939
:10080800B82B073A0319BF2B013A0319C62B033A31
:100818000319CD2B013A0319D42B0F3A0319DB2BFB
:10082800013A0319E22BE92B080083120313A701ED
:10083800A31F1F2C202C272CA209A309A20A0319E5
:10084800A30AA701A70AA51F2A2C2B2C342CA4091C
:10085800A509A40A0319A50A0130F7007708A70615
:10086800A801A9012208230403193B2C3C2C732C52
:10087800A601A60A4A2C01300310A20DA30DFF3EC3
:10088800031D402C0130F7007708A607A31F4D2C45
:100898004E2C3F2C01300310A80DA90DFF3E031D5F
:1008A8004F2C23082502031D5B2C22082402031C5D
:1008B8005E2C5F2C662C2208A4022308031CA503C7
:1008C800A502281401300310A30CA20CFF3E031D3F
:1008D800672C0130A602031D722C732C4E2C27089E
:1008E8000319772C782C7D2CA809A909A80A0319C3
:1008F800A90A2908A3002808A200080004308A00D1
:100908000408840A820700347734773477342E3425
:1009180065346C3465346334743472346F345334EE
:100928006F346D3465342E3463346F346D34003471
:10093800533431343A34203420342034203453347E
:1009480032343A3420342034533433343A34203473
:1009580000344C344334443420344C3469346234E5
:100968007234613472347934203466346F347234BA
:10097800003444346534763465346C346F34703400
:1009880065346434203442347934003465346C344A
:1009980065346334743472346F3453346F346D3463
:1009A800653400344D3450344C34413442342034AE
:1009B8005834433438340034203420340034003080
:1009C8000A128A112D250A128A1134308312031350
:1009D800A100F130A000A00BEF2CA10BEF2C3030C0
:1009E8000A128A11EE260A128A110D308312031395
:1009F800A100FB30A000A00BFF2CA10BFF2C303076
:100A08000A128A11EE260A128A111D308312031364
:100A1800A1009030A000A00B0F2DA10B0F2D0000FE
:100A280030300A128A11EE260A128A1138300A1258
:100A38008A11EE260A128A110C300A128A11EE2641
:100A48000A128A1106300A128A11EE260A128A112F
:100A58000800F300731C312D322D362D8312031339
:100A68000814392D831203130810F31C3C2D3D2D57
:100A78003F2D8814402D8810731D432D442D462D7D
:100A88000815472D0811F31D4A2D4B2D4D2D88159E
:100A98004E2D8811731E512D522D542D0816552D8B
:100AA8000812F31E582D592D5B2D88165C2D8812BF
:100AB800731F5F2D602D622D0817632D0813F31F18
:100AC800662D672D692D88176A2D88130800F70091
:100AD800782D7708CE3EF6007608F7000130F6004C
:100AE800760883120313B7073230770203187D2D77
:100AF8007E2D6D2D831203133708F60073088400CA
:100B0800760883138000B701922D7708F63EF60029
:100B18007608F7000130F6007608B7070A30770242
:100B28000318972D982D892D3708F600740884002E
:100B38007608831380007708F60075088400760825
:100B48008000B7010800F700B42D77089C3EF60036
:100B58007608F7000130F600760883120313B7070A
:100B6800643077020318B92DBA2DA92D8312031307
:100B78003708F60075088400760883138000B701EB
:100B8800CE2D7708F63EF6007608F7000130F6001D
:100B98007608B7070A3077020318D32DD42DC52D50
:100BA8003708F60074088400760880007708F60095
:100BB8007308840076088000B701080083120313C5
:100BC800B2002B082C02A200A301031CA3032B08CC
:100BD8003202F300F401031CF4032D082E02F50081
:100BE800F601031CF6030A128A1174260A128A11E6
:100BF800740883120313A5007308A4000A128A114B
:100C080019240A128A11831203132208AF00230839
:100C1800B0002D082F07B1002A088400310883137B
:100C280080000800831603178801831603138501C3
:100C3800831203138501831603178901831603138F
:100C4800880183120313880187010A128A111E275B
:100C58000A128A111F30831603138600E0308312AC
:100C68000313860010308316031387009401910143
:100C780030308312031394000830831603138C005A
:100C8800C0308B0008008B13831203138C1D4D2E6C
:100C98004E2E6C2E861B512E522E582E8617130858
:100CA800F0007008BF006B2E061B5B2E5C2E622EB8
:100CB80006171308F0007008BE006B2E861A652E02
:100CC800662E6B2E86161308F0007008B8008C117B
:100CD8008B1772088A00710E8300FE0E7E0E0900C3
:100CE80083120313A001A101731C7B2E7C2E842E7A
:100CF800750883120313A0070318A10A7608A10731
:100D080001300310F50DF60DFF3E031D852E013051
:100D18000310F40CF30CFF3E031D8C2E73087404AF
:100D2800031D972E982E782E831203132108F400A2
:100D38002008F300080083120313A200A001A101F8
:100D4800BA2E2008220784000A128A1182240A1265
:100D58008A110A128A1108270A128A11013083128D
:100D68000313A0070318A10A0030A10720082207CF
:100D780084000A128A1182240A128A11003A031D79
:100D8800C62EC72EA52E080083120313A100210327
:100D9800031DCF2ED02EDC2E77087F3EA000200822
:100DA800A20022080A128A11EE260A128A11ED2ED2
:100DB80002302106031DE12EE22EED2E7708BF3EFC
:100DC800A0002008A20022080A128A11EE260A12A0
:100DD8008A110800F60083120313871076080A1296
:100DE8008A112D250A128A118312031307140B3056
:100DF800F5006230F400F40BFF2EF50BFF2E000017
:100E08008312031307100800F500831203138714D5
:100E180075080A128A112D250A128A1183120313E2
:100E280007141A30F400F40B172F00008312031371
:100E38000710080019308316031399009A018316C6
:100E48000317870124308316031398009030831208
:100E5800031398000800F701F70A01300A128A11F3
:100E6800C8260A128A1115300A128A119F260A12F8
:100E78008A110800831203138612C730F300442F27
:100E8800F30B432F472F482F8312031393010800B6
:100E9800831203138613C730F300522FF30B512F1D
:100EA800552F562F8312031393010800831203133F
:100EB8000613C730F300602FF30B5F2F632F642FE7
:100EC8008312031393010800F30083160313981C7D
:100ED8006E2F6F2F732F7308831203139900080066
:100EE80083160313981C792F7A2F7E2F0D308312C7
:0A0EF8000313990008002734273483
:04400E00D120FF3F7F
:00000001FF
