:020000040000FA
:060000000A128A110E280D
:10000800FE00030EF3000408F4000A08F5000A12C3
:100018008A1177280A128A111128F801F901830137
:100028000A128A114828831603130608880110301B
:10003800F6007608831603178905831203138801CF
:10004800860170309F001030831603139F008515BA
:10005800831603178815831203131F142030831681
:1000680003138500183087009401910134308312FE
:10007800031394004830831603138C008312031370
:100088000C13C8308B0008000A128A1117200A12B4
:100098008A110A128A119A200A128A1118307902D2
:1000A8000318572858285D28013083120313880045
:1000B8004D282B30790203186228632868280230FB
:1000C8008312031388004D282B307902031C6D28F6
:1000D8006E28732804308312031388004D284D2896
:1000E8000A128A110E28831203130C1F7C287D28FC
:1000F800862879300A128A11AC200A128A118312D2
:1001080003130C138C1D89288A2891281308F200E0
:100118007208F800790893008C1175088A00740831
:100128008400730E8300FE0E7E0E090083120313F3
:100138009F189F28A028AB280730F7007D30F600CD
:10014800F60BA428F70BA428831203139F140800A6
:10015800F100831203131E08F00071088400700870
:04016800800008000B
:04400E00D120FF3F7F
:00000001FF
