:020000040000FA
:060000000A128A110E280D
:10000800FE00030EF2000408F3000A08F4000A12C6
:100018008A1136280A128A111128F70183010A1257
:100028008A114E2883160313060888011030F5003C
:10003800750883160317890583120313880186013F
:1000480070309F00831603139F01831203131F143C
:100058004030831603138C00831203130C13C8302B
:100068008B000800831203130C1F3B283C284528EB
:1000780077300A128A1172200A128A118312031326
:100088000C1374088A0073088400720E8300FE0E35
:100098007E0E09000A128A1116200A128A110A1203
:1000A8008A1160200A128A117708831203138800C4
:1000B80053280A128A110E28831203139F186528E1
:1000C800662871280730F6007D30F500F50B6A28A0
:1000D800F60B6A28831203139F140800F100831299
:1000E80003131E08F00071088400700880000800DF
:04400E00D120FF3F7F
:00000001FF
