:020000040000FA
:060000000A128A110C280F
:10000800FE00030EF1000A08F2000A128A111428F1
:100018000A128A110F28F30183010A128A1147284C
:100028000B1C172818282D2883120313061C1D28BB
:100038001E2822280130F30273088800861C252810
:1000480026282C280130F0007008F3077308880070
:100058000B1072088A00710E8300FE0E7E0E0900D6
:10006800831603138801033086008316031789015A
:100078008312031388018601033083160313960045
:10008800C8308B0008000A128A1134200A128A111B
:0A00980000004C280A128A110C28FF
:04400E00D120FF3F7F
:00000001FF
