:020000040000FA
:060000000A128A110E280D
:10000800FE00030EF3000408F4000A08F5000A12C3
:100018008A11FE290A128A1111280A128A11482502
:100028000A128A11CE00CA01CB01CC01CD01F70119
:1000380083010A128A11762B83120313BC002E3017
:10004800B4003408B800642925303F0603192D2868
:100058002E283A283F08B4003C088400340883134B
:1000680080000130B4003408BC076429BD01BE011A
:10007800B7012D0884000A128A1185210A128A11F3
:100088000A128A11DD240A128A11031C4C284D28F1
:10009800932883120313BD01BE010A308312031390
:1000A800A0000030A1003E08A3003D08A2000A12EB
:1000B8008A115C240A128A11831203132108BE00D4
:1000C8002008BD002D0884000A128A1185210A1211
:1000D8008A11D03EB400FF3003180030B500340850
:1000E800BD070318BE0A3508BE070130B40034083E
:1000F800AD072D0884000A128A1185210A128A1177
:100108000A128A11DD240A128A1103188C288D28F4
:1001180051289328C030B4003408B704AF28013000
:1001280083120313AD07FF302D0784000A128A11CA
:1001380085210A128A11BF00B400B5013508003ABA
:100148000319A72864293408003A03197629753A4F
:1001580003198E2864293808840083130008B9001D
:10016800840A0008BA000230B4003408B807BF0196
:10017800BF0A3F08B4003407013E84000A128A11FE
:1001880085210A128A11B5000A128A1185210A12DC
:100198008A11B60036083A02031DD42835083902F8
:1001A8000318D728D828D928E3280130B400340800
:1001B800BF0705303F06031DE228E328BD283E0897
:1001C800803A803C031DEA283D083F020318ED28C9
:1001D800EE28FA28831203133F08B400B501340847
:1001E800BD023508031CBE03BE02FE28831203139A
:1001F800BD01BE013D083E040319032904291B293A
:100208002030B4003C088400340883138000013097
:10021800B4003408BC07FF30BD070318BE0AFF301E
:10022800BE073D083E04031D1A291B2904293F085F
:10023800B4003408BB005B290A30A7000030A800CE
:100248003B08B4003407013E84000A128A11852154
:100258000A128A11A0000A128A1185210A128A112B
:10026800A1003A08A3003908A2000A128A11EA225A
:100278000A128A11831203132108AA002008A90070
:100288000A128A11F7230A128A1183120313270804
:10029800303EB5003508BF003F08B4003C08840074
:1002A8003408831380000130B4003408BC07FF30E1
:1002B800B4003408BB073B0A031D632964292029BD
:1002C8000130AD07FF302D0784000A128A118521FD
:1002D8000A128A11B4003408BF003F08031D7529AB
:1002E800762928283C088400831380010800FF1B16
:1002F800852983137F1883170008840A0319FF0AC6
:10030800080001308A000408840A82070034013496
:1003180000340A34003464340034E83403341034CC
:1003280027347734773477342E3465346C34653435
:100338006334743472346F3453346F346D346534C9
:100348002E3463346F346D34003420342534333420
:100358007534203420342534333475342034203433
:100368002534333475342034203400342034503468
:100378004F3454343134203450344F3454343234BC
:10038800203443344F344E345434203400344C3405
:100398004334443420344C34693462347234613424
:1003A80072347934203466346F347234003444340F
:1003B8006534763465346C346F3470346534643441
:1003C800203442347934003465346C346534633411
:1003D800743472346F3453346F346D34653400348C
:1003E8004D3450344C34413442342034583443343E
:1003F80038340034831203130C1F032A042A222AD8
:10040800831603130C1F092A0A2A222A83120313AC
:100418001F1E0F2A102A172A1E08F2007208CC0085
:1004280069309F00212A9F1D1A2A1B2A212A1E088B
:10043800F2007208CB0071309F000C13831603136F
:100448008C1E272A282A4B2A831203138C1E2D2A36
:100458002E2A4B2A77300A128A1124250A128A1169
:100468002B307706031D392A3A2A412A0130F20037
:10047800720883120313CA074B2A2D307706031D0F
:10048800462A472A4B2A013083120313CA027508E9
:100498008A0074088400730E8300FE0E7E0E090025
:1004A80083120313A301A30A01300A128A118324B9
:1004B8000A128A11303083120313A2008030A3007D
:1004C8000A128A1130230A128A1183120313A30114
:1004D800A30A02300A128A1183240A128A114D30A3
:1004E80083120313A2000030A3000A128A113023DA
:1004F8000A128A111F3083120313C0004008AD008E
:100508004C08C100C2014108AE004208AF004B08C8
:10051800C300C4014308B0004408B1004A08C5003C
:10052800C6014508B2004608B3004D300A128A11C8
:1005380020200A128A11080000300A128A11B923F1
:100548000A128A11343083120313A400F130A30075
:10055800A30BAC2AA40BAC2A30300A128A11A924A6
:100568000A128A110D3083120313A400FB30A30072
:10057800A30BBC2AA40BBC2A30300A128A11A92466
:100588000A128A111D3083120313A4009030A300AD
:10059800A30BCC2AA40BCC2A000030300A128A11F3
:1005A800A9240A128A1138300A128A11A9240A12B7
:1005B8008A110C300A128A11A9240A128A110630EB
:1005C8000A128A11A9240A128A1108008312031335
:1005D800A401A501200821040319F32AF42A2B2BCE
:1005E800A601A60A022B01300310A00DA10DFF3EA3
:1005F800031DF82A0130F6007608A607A11F052B6F
:10060800062BF72A01300310A40DA50DFF3E031D8C
:10061800072B21082302031D132B20082202031C89
:10062800162B172B1E2B2008A2022108031CA3033C
:10063800A302241401300310A10CA00CFF3E031DDB
:100648001F2B0130A602031D2A2B2B2B062B250856
:10065800A1002408A000080083120313A701A80121
:10066800592B27082207A5002308A4000318A40A69
:10067800A71F3F2BA403831203132408A6002608F0
:10068800FF00250884000A128A117B210A128A11A8
:100698000A128A11C5240A128A110130831203131F
:1006A800A7070318A80A0030A80727082207A500EB
:1006B8002308A4000318A40AA71F632BA40383120A
:1006C80003132408A6002608FF00250884000A1240
:1006D8008A117B210A128A11003A031D742B752B8B
:1006E800352B08000A128A1133240A128A110A12B9
:1006F8008A11A0220A128A110A128A11F1240A12F6
:100708008A110A128A1154220A128A114E300A12C8
:100718008A1115250A128A1183160313981C952B22
:10072800962B902B0A128A1132250A128A1102304E
:1007380083120313C9000430C800B930C700C70BBF
:10074800A32BC80BA32BC90BA32BAA2B831603130C
:10075800981CAF2BB02BAA2B0A128A113D250A121E
:100768008A11802B0A128A110E28F600761CBD2BDE
:10077800BE2BC22B831203130814C52B8312031339
:100788000810F61CC82BC92BCB2B8814CC2B88102F
:10079800761DCF2BD02BD22B0815D32B0811F61D85
:1007A800D62BD72BD92B8815DA2B8811761EDD2B63
:1007B800DE2BE02B0816E12B0812F61EE42BE52BA6
:1007C800E72B8816E82B8812761FEB2BEC2BEE2BE9
:1007D8000817EF2B0813F61FF22BF32BF52B8817AE
:1007E800F62B88130800831203132708280403191B
:1007F800FE2BFF2B2E2CAC01AC0A0D2C0130031064
:10080800A70DA80DFF3E031D032C0130AB002B08DC
:10081800AC07A81F102C112C022C28082A02031D33
:10082800172C27082902031C1A2C1B2C212C2708FB
:10083800A9022808031CAA03AA0201300310A80C65
:10084800A70CFF3E031D222C0130AC02031D2D2CEA
:100858002E2C112C2A08A8002908A7000800FC3013
:10086800F600760883160317890583160313880193
:10087800F330F60076088605831203138601880193
:1008880070309F00831603139F01831203131F14F4
:100898000A128A1104250A128A116030F6007608B5
:1008A800831603138C04C030F60076088B04080006
:1008B80083120313A401A501201C632C642C6A2C49
:1008C8002208A4070318A50A2308A5070130031066
:1008D800A20DA30DFF3E031D6B2C01300310A10CCC
:1008E800A00CFF3E031D722C20082104031D7D2C43
:1008F8007E2C602C2508A1002408A0000800831283
:100908000313A5002503031D8A2C8B2C972C230881
:100918007F3EA4002408A60026080A128A11A924EA
:100928000A128A11A82C02302506031D9C2C9D2C26
:10093800A82C2308BF3EA4002408A60026080A12F3
:100948008A11A9240A128A11080083120313A2002B
:10095800061122080A128A11B9230A128A1183126F
:10096800031386150B3083120313A1006130A00016
:10097800A00BBC2CA10BBC2CC12C83120313861119
:10098800080083120313A100061521080A128A1110
:10099800B9230A128A118312031386151930831298
:1009A8000313A000A00BD62CD92C83120313861195
:1009B800080083120313A100A0013A302102031892
:1009C800E62CE72CEF2C30302102031CEC2CED2C0C
:1009D800EF2CA001A00A200C08001A308312031380
:1009E800A100F730A000A00BF72CA10BF72CFC2CD2
:1009F800831203139F18012D022D032D9F14080045
:100A080019308316031399009A0183160317870177
:100A18002430831603139800903083120313980030
:100A28000800F60083160313981C1B2D1C2D232D7C
:100A380076088400831300088312031399000800C2
:100A4800F100831203138C1E2A2D2B2D312D1A0829
:100A5800F0007108840070088000080083160313F2
:100A6800981C372D382D3C2D0D3083120313990017
:100A7800080083160313981C422D432D472D0C3074
:0A0A880083120313990008000534DF
:04400E00D120FF3F7F
:00000001FF
