:020000040000FA
:060000000A128A110E280D
:10000800FE00030EF3000408F4000A08F5000A12C3
:100018008A11652C0A128A1111280A128A113927A5
:100028000A128A11F700AD01AE01AF01B001B101AA
:10003800B201B301B401B501B601B701F6018301FC
:100048000A128A11BB2C83120313A401A40A0230DA
:100058000A128A1178260A128A1183120313B70129
:10006800B601B5013730A8002808A0003630A9002D
:100078002908A1003530AA002A08A20030080A126F
:100088008A1150250A128A11313083120313A800ED
:100098002808A00037080A128A1178230A128A1140
:1000A8008312031331080A128A11BA260A128A1116
:1000B8008312031331080A128A1107270A128A11B8
:1000C800033083120313A9009730A800A80B6A28ED
:1000D800A90B6A282E300A128A11BA260A128A1126
:1000E8002E300A128A1107270A128A110330831246
:1000F8000313A9009730A800A80B8028A90B802813
:10010800313083120313A8002808A00036080A1209
:100118008A1178230A128A118312031331080A12EA
:100128008A11BA260A128A118312031331080A1295
:100138008A1107270A128A11033083120313A900B0
:100148009730A800A80BA628A90BA628313083123F
:100158000313A8002808A00035080A128A1178237A
:100168000A128A118312031331080A128A11BA2655
:100178000A128A118312031331080A128A110727F7
:100188000A128A11033083120313A9009730A800BA
:10019800A80BCC28A90BCC285D300A128A114F264F
:1001A8000A128A1156300A128A1107270A128A116E
:1001B800033083120313A9009730A800A80BE22884
:1001C800A90BE22820300A128A1107270A128A117D
:1001D800033083120313A9009730A800A80BF22854
:1001E800A90BF228373083120313A8002808A000AF
:1001F8003630A9002908A1003530AA002A08A20033
:100208002F080A128A1150250A128A1131308312D6
:100218000313A8002808A00037080A128A117823B7
:100228000A128A118312031331080A128A11BA2694
:100238000A128A118312031331080A128A11072736
:100248000A128A11033083120313A9009730A800F9
:10025800A80B2C29A90B2C292E300A128A11BA2690
:100268000A128A112E300A128A1107270A128A11D5
:10027800033083120313A9009730A800A80B422962
:10028800A90B4229313083120313A8002808A000C3
:1002980036080A128A1178230A128A118312031364
:1002A80031080A128A11BA260A128A118312031314
:1002B80031080A128A1107270A128A110330831299
:1002C8000313A9009730A800A80B6829A90B68296F
:1002D800313083120313A8002808A00035080A1239
:1002E8008A1178230A128A118312031331080A1219
:1002F8008A11BA260A128A118312031331080A12C4
:100308008A1107270A128A11033083120313A900DE
:100318009730A800A80B8E29A90B8E2959300A12EC
:100328008A114F260A128A1156300A128A11072793
:100338000A128A11033083120313A9009730A80008
:10034800A80BA429A90BA42920300A128A1107276F
:100358000A128A11033083120313A9009730A800E8
:10036800A80BB429A90BB42920300A128A1107272F
:100378000A128A11033083120313A9009730A800C8
:10038800A80BC429A90BC429343083120313A8006D
:100398002808A0003330A9002908A1003230AA009B
:1003A8002A08A2002E080A128A1198250A128A1110
:1003B800313083120313A8002808A00034080A1259
:1003C8008A1178230A128A118312031331080A1238
:1003D8008A11BA260A128A118312031331080A12E3
:1003E8008A1107270A128A11033083120313A900FE
:1003F8009730A800A80BFE29A90BFE2931308312DB
:100408000313A8002808A00033080A128A117823C9
:100418000A128A118312031331080A128A11BA26A2
:100428000A128A118312031331080A128A11072744
:100438000A128A11033083120313A9009730A80007
:10044800A80B242AA90B242A313083120313A800ED
:100458002808A00032080A128A1178230A128A1181
:100468008312031331080A128A11BA260A128A1152
:100478008312031331080A128A1107270A128A11F4
:10048800033083120313A9009730A800A80B4A2A47
:10049800A90B4A2A0A128A112E270A128A11033036
:1004A80083120313A9009730A800A80B592AA90B97
:1004B800592A0800033083120313A2009730A100C1
:1004C800A10B642AA20B642A53300A128A11072747
:1004D8000A128A11033083120313A2009730A10075
:1004E800A10B742AA20B742A31300A128A11072729
:1004F8000A128A11033083120313A2009730A10055
:10050800A10B842AA20B842A3A300A128A110727DF
:100518000A128A11033083120313A2009730A10034
:10052800A10B942AA20B942A20300A128A110727B9
:100538000A128A11033083120313A2009730A10014
:10054800A10BA42AA20BA42A20300A128A11072779
:100558000A128A11033083120313A2009730A100F4
:10056800A10BB42AA20BB42A20300A128A11072739
:100578000A128A11033083120313A2009730A100D4
:10058800A10BC42AA20BC42A53300A128A110727C6
:100598000A128A11033083120313A2009730A100B4
:1005A800A10BD42AA20BD42A32300A128A110727A7
:1005B8000A128A11033083120313A2009730A10094
:1005C800A10BE42AA20BE42A3A300A128A1107275F
:1005D8000A128A11033083120313A2009730A10074
:1005E800A10BF42AA20BF42A20300A128A11072739
:1005F8000A128A11033083120313A2009730A10054
:10060800A10B042BA20B042B20300A128A110727F6
:100618000A128A11033083120313A2009730A10033
:10062800A10B142BA20B142B20300A128A110727B6
:100638000A128A11033083120313A2009730A10013
:10064800A10B242BA20B242B53300A128A11072743
:100658000A128A11033083120313A2009730A100F3
:10066800A10B342BA20B342B33300A128A11072723
:100678000A128A11033083120313A2009730A100D3
:10068800A10B442BA20B442B3A300A128A110727DC
:100698000A128A11033083120313A2009730A100B3
:1006A800A10B542BA20B542B20300A128A110727B6
:1006B8000A128A11033083120313A2009730A10093
:1006C800A10B642BA20B642B0A128A112E270A1283
:1006D8008A11033083120313A2009730A100A10BE3
:1006E800732BA20B732B080083120313A300D42BC4
:1006F8003030A10020088400210883138000FC2BDF
:100708003130A10020088400210883138000FC2BCD
:100718003230A10020088400210883138000FC2BBC
:100728003330A10020088400210883138000FC2BAB
:100738003430A10020088400210883138000FC2B9A
:100748003530A10020088400210883138000FC2B89
:100758003630A10020088400210883138000FC2B78
:100768003730A10020088400210883138000FC2B67
:100778003830A10020088400210883138000FC2B56
:100788003930A10020088400210883138000FC2B45
:100798003F30A10020088400210883138000FC2B2F
:1007A8002308A100A2012208003A0319DC2BCC2B54
:1007B8002108003A03197C2B013A0319842B033AC8
:1007C80003198C2B013A0319942B073A03199C2B14
:1007D800013A0319A42B033A0319AC2B013A031964
:1007E800B42B0F3A0319BC2B013A0319C42BCC2B99
:0207F8000800F7
:1008000004308A000408840A82070034773477347D
:1008100077342E3465346C34653463347434723414
:100820006F3453346F346D3465342E3463346F3425
:100830006D340034533431343A342034203420348D
:10084000533432343A342034203420345334333463
:100850003A34203400344C344334443420344C345F
:1008600069346234723461347234793420346634D9
:100870006F347234003444346534763465346C3407
:100880006F34703465346434203442347934003445
:1008900065346C3465346334743472346F34533477
:1008A0006F346D34653400344D3450344C3441343D
:1008B00042342034583443343834003456342034ED
:1008C00020340034563420340034831203130C1FB8
:1008D0006A2C6B2C892C831603130C1F702C712C23
:1008E000892C831203131F1E762C772C7E2C1E0856
:1008F000F2007208B00069309F00882C9F1D812C87
:10090000822C882C1E08F2007208AF0071309F0004
:100910000C13831603138C1E8E2C8F2CB22C831277
:1009200003138C1E942C952CB22C76300A128A114B
:1009300015270A128A112B307606031DA02CA12C34
:10094000A82C0130F200720883120313AE07B22CF8
:100950002D307606031DAD2CAE2CB22C0130831247
:100960000313AE0275088A0074088400730E8300B6
:10097000FE0E7E0E09000A128A111C260A128A1126
:100980000A128A1106250A128A110A128A112327CD
:100990000A128A110A128A115E220A128A110A1296
:1009A0008A11D2260A128A110D3083120313AC0069
:1009B000FB30AB00AB0BDA2CAC0BDA2C0A128A1131
:1009C000D2260A128A110D3083120313AC00FB30B9
:1009D000AB00AB0BE92CAC0BE92C0A128A11F62602
:1009E0000A128A110A128A1127200A128A11273044
:1009F00083120313AC00F430AB00AB0BFD2CAC0B3B
:100A0000FD2C0000C52C0A128A110E2800300A1293
:100A10008A11E0250A128A11343083120313A500CB
:100A2000F130A400A40B122DA50B122D30300A12A8
:100A30008A119E260A128A110D3083120313A50013
:100A4000FB30A400A40B222DA50B222D30300A125E
:100A50008A119E260A128A111D3083120313A500E3
:100A60009030A400A40B322DA50B322D00003030A5
:100A70000A128A119E260A128A1138300A128A1125
:100A80009E260A128A110C300A128A119E260A1218
:100A90008A1106300A128A119E260A128A1108004B
:100AA00083120313A4005D2D2408CE3EA300230867
:100AB000A4000130A3002308AD073230240203183C
:100AC000622D632D542D2D08A300200884002308D7
:100AD00083138000AD01752D2408F63EA300230882
:100AE000A4000130A3002308AD070A302402031834
:100AF0007A2D7B2D6C2D2D08A3002108840023085E
:100B000083138000AD018A2D0130A4020130A300BF
:100B10002308AD072408031D8E2D8F2D842D2D084D
:100B2000A30022088400230883138000AD0108007D
:100B300083120313A400A52D24089C3EA3002308C0
:100B4000A4000130A3002308AD0764302402031879
:100B5000AA2DAB2D9C2D2D08A3002008840023086E
:100B600083138000AD01BD2D2408F63EA3002308A9
:100B7000A4000130A3002308AD070A3024020318A3
:100B8000C22DC32DB42D2D08A300210884002308F5
:100B900083138000AD01D22D0130A4020130A300E7
:100BA0002308AD072408031DD62DD72DCC2D2D08E5
:100BB000A30022088400230883138000AD010800ED
:100BC00083120313A000201CE62DE72DE92D081445
:100BD000EA2D0810A01CED2DEE2DF02D8814F12D1E
:100BE0008810201DF42DF52DF72D0815F82D08116E
:100BF000A01DFB2DFC2DFE2D8815FF2D8811201E1C
:100C0000022E032E052E0816062E0812A01E092EEF
:100C10000A2E0C2E88160D2E8812201F102E112E33
:100C2000132E0817142E0813A01F172E182E1A2E75
:100C300088171B2E88130800F43083120313A000BA
:100C40002008831603178905831603138801E330F0
:100C500083120313A0002008831603138605831252
:100C600003138601880170309F00831603139F01D0
:100C7000831203131F140A128A11E5260A128A111D
:100C8000603083120313A0002008831603138C0422
:100C9000C03083120313A00020088B0408008312C5
:100CA0000313A500A301A4016A2E230825078400CD
:100CB0000A128A1100240A128A110A128A11BA260B
:100CC0000A128A11013083120313A3070318A40A1E
:100CD0000030A4072308250784000A128A11002483
:100CE0000A128A11003A031D762E772E552E08001F
:100CF00083120313A6002603031D7F2E802E8C2E45
:100D000024087F3EA5002508A70027080A128A119B
:100D10009E260A128A119D2E02302606031D912E50
:100D2000922E9D2E2408BF3EA5002508A700270867
:100D30000A128A119E260A128A11080083120313CE
:100D4000A300061123080A128A11E0250A128A114B
:100D50008312031386150B3083120313A200613034
:100D6000A100A10BB12EA20BB12EB62E831203133C
:100D70008611080083120313A200061522080A1226
:100D80008A11E0250A128A1183120313861519307D
:100D900083120313A100A10BCB2ECE2E83120313BB
:100DA000861108001A3083120313A100F730A00047
:100DB000A00BD82EA10BD82EDD2E831203139F1863
:100DC000E22EE32EE42E9F1408001930831603133D
:100DD00099009A01831603178701243083160313A1
:100DE00098009030831203139800080083120313B5
:100DF000A401A40A01300A128A1178260A128A1163
:100E000015300A128A114F260A128A11080083121D
:100E10000313A00083160313981C0F2F102F142FF9
:100E200083120313200899000800F10083120313B2
:100E30008C1E1B2F1C2F222F1A08F0007108840013
:100E400070088000080083160313981C282F292F90
:100E50002D2F0C30831203139900080083160313FF
:100E6000981C332F342F382F0D3083120313990021
:040E7000080005343D
:04400E00D120FF3F7F
:00000001FF
