:020000040000FA
:060000000A128A110E280D
:10000800FE00030EF3000408F4000A08F5000A12C3
:100018008A1144280A128A111128F801F90183016A
:100028000A128A11692883160313060888011030FA
:10003800F6007608831603178905831203138801CF
:100048008601870170309F00831603139F01831276
:1000580003131F14203083160313850018308700FC
:1000680094019101343083120313940048308316AD
:1000780003138C00831203130C13C8308B00080081
:100088008B13831203130C1F4A284B2854287930EA
:100098000A128A1194200A128A11831203130C136C
:1000A8008C1D572858285F281308F2007208F8009A
:1000B800790893008C118B1775088A0074088400DE
:1000C800730E8300FE0E7E0E09000A128A11172095
:1000D8000A128A110A128A1182200A128A117908D0
:1000E800831203138800941F7A287B287D2807141D
:1000F8006E2807106E280A128A110E28831203131D
:100108009F188728882893280730F7007D30F60045
:10011800F60B8C28F70B8C28831203139F14080006
:10012800F100831203131E08F000710884007008A0
:04013800800008003B
:04400E00D120FF3F7F
:00000001FF
