:020000040000FA
:060000000A128A110E280D
:10000800FE00030EF2000408F3000A08F4000A12C6
:100018008A1137280A128A111128F701F801830179
:100028000A128A114F288316031306088801103014
:10003800F5007508831603178905831203138801D1
:10004800860170309F00831603139F0183120313E8
:100058001F144030831603138C00831203130C13F0
:10006800C8308B000800831203130C1F3C283D285E
:10007800462878300A128A1173200A128A118312CC
:1000880003130C1374088A0073088400720E83002B
:10009800FE0E7E0E09000A128A1117200A128A1112
:1000A8000A128A1161200A128A117808831203132E
:1000B800880054280A128A110E28831203139F18E5
:1000C8006628672872280730F6007D30F500F50BA2
:1000D8006B28F60B6B28831203139F140800F1009A
:1000E800831203131E08F000710884007008800052
:0200F8000800FE
:04400E00D120FF3F7F
:00000001FF
